{
  "abi": [
    {
      "anonymous": false,
      "inputs": [
        {
          "indexed": true,
          "internalType": "address",
          "name": "account",
          "type": "address"
        },
        {
          "indexed": false,
          "internalType": "string",
          "name": "name",
          "type": "string"
        },
        {
          "indexed": false,
          "internalType": "string",
          "name": "email",
          "type": "string"
        },
        {
          "indexed": false,
          "internalType": "string",
          "name": "phoneNumber",
          "type": "string"
        }
      ],
      "name": "ContactSet",
      "type": "event"
    },
    {
      "inputs": [
        {
          "internalType": "address",
          "name": "account",
          "type": "address"
        }
      ],
      "name": "getContact",
      "outputs": [
        {
          "internalType": "string",
          "name": "",
          "type": "string"
        },
        {
          "internalType": "string",
          "name": "",
          "type": "string"
        },
        {
          "internalType": "string",
          "name": "",
          "type": "string"
        }
      ],
      "stateMutability": "view",
      "type": "function"
    },
    {
      "inputs": [
        {
          "internalType": "string",
          "name": "_name",
          "type": "string"
        },
        {
          "internalType": "string",
          "name": "_email",
          "type": "string"
        },
        {
          "internalType": "string",
          "name": "_phoneNumber",
          "type": "string"
        }
      ],
      "name": "setContact",
      "outputs": [],
      "stateMutability": "nonpayable",
      "type": "function"
    }
  ],
  "bytecode": {
    "object": "0x608060405234801561001057600080fd5b50610701806100206000396000f3fe608060405234801561001057600080fd5b50600436106100365760003560e01c8063053cbb2f1461003b578063f96a181e14610050575b600080fd5b61004e61004936600461043a565b61007b565b005b61006361005e3660046104c2565b610122565b6040516100729392919061053f565b60405180910390f35b6040805160608101825284815260208082018590528183018490523360009081529081905291909120815181906100b2908261060b565b50602082015160018201906100c7908261060b565b50604082015160028201906100dc908261060b565b50506040513391507fdd128c137a5cfb10b75e4308fe652dfe46fcf40bbf1fa6519178a35eb232a2d4906101159086908690869061053f565b60405180910390a2505050565b6001600160a01b0381166000908152602081905260409020805460609182918291859161014e90610582565b90506000036101a35760405162461bcd60e51b815260206004820152601760248201527f436f6e7461637420646f6573206e6f7420657869737421000000000000000000604482015260640160405180910390fd5b6001600160a01b0385166000908152602081905260408082208151606081019092528054829082906101d490610582565b80601f016020809104026020016040519081016040528092919081815260200182805461020090610582565b801561024d5780601f106102225761010080835404028352916020019161024d565b820191906000526020600020905b81548152906001019060200180831161023057829003601f168201915b5050505050815260200160018201805461026690610582565b80601f016020809104026020016040519081016040528092919081815260200182805461029290610582565b80156102df5780601f106102b4576101008083540402835291602001916102df565b820191906000526020600020905b8154815290600101906020018083116102c257829003601f168201915b505050505081526020016002820180546102f890610582565b80601f016020809104026020016040519081016040528092919081815260200182805461032490610582565b80156103715780601f1061034657610100808354040283529160200191610371565b820191906000526020600020905b81548152906001019060200180831161035457829003601f168201915b505050919092525050815160208301516040909301519099929850965090945050505050565b634e487b7160e01b600052604160045260246000fd5b600082601f8301126103be57600080fd5b813567ffffffffffffffff808211156103d9576103d9610397565b604051601f8301601f19908116603f0116810190828211818310171561040157610401610397565b8160405283815286602085880101111561041a57600080fd5b836020870160208301376000602085830101528094505050505092915050565b60008060006060848603121561044f57600080fd5b833567ffffffffffffffff8082111561046757600080fd5b610473878388016103ad565b9450602086013591508082111561048957600080fd5b610495878388016103ad565b935060408601359150808211156104ab57600080fd5b506104b8868287016103ad565b9150509250925092565b6000602082840312156104d457600080fd5b81356001600160a01b03811681146104eb57600080fd5b9392505050565b6000815180845260005b81811015610518576020818501810151868301820152016104fc565b8181111561052a576000602083870101525b50601f01601f19169290920160200192915050565b60608152600061055260608301866104f2565b828103602084015261056481866104f2565b9050828103604084015261057881856104f2565b9695505050505050565b600181811c9082168061059657607f821691505b6020821081036105b657634e487b7160e01b600052602260045260246000fd5b50919050565b601f82111561060657600081815260208120601f850160051c810160208610156105e35750805b601f850160051c820191505b81811015610602578281556001016105ef565b5050505b505050565b815167ffffffffffffffff81111561062557610625610397565b610639816106338454610582565b846105bc565b602080601f83116001811461066e57600084156106565750858301515b600019600386901b1c1916600185901b178555610602565b600085815260208120601f198616915b8281101561069d5788860151825594840194600190910190840161067e565b50858210156106bb5787850151600019600388901b60f8161c191681555b5050505050600190811b0190555056fea2646970667358221220969e542460244edbcb62a05625d2a135e8f3d7bcbcf59ec824e23efd2b809d8d64736f6c634300080f0033",
    "linkReferences": {}
  },
  "methodIdentifiers": {
    "getContact(address)": "f96a181e",
    "setContact(string,string,string)": "053cbb2f"
  },
  "id": 36
}